:040000006BEF03F0AF
:10060000004D6963726F656D626564646564005076
:1006100049432D31384620426F61726400000F0E4D
:10062000C16E000E936E92909292380E82EC03F09F
:10063000060E82EC03F00C0E82EC03F0010E82EC4D
:1006400003F0800E82EC03F00AD008C0F6FF09C068
:10065000F7FF0800F55096EC03F0084A092A08C095
:10066000F6FF09C0F7FF0800F5500009D8A4EDD740
:10067000C00E82EC03F00AD00AC0F6FF0BC0F7FFF1
:100680000800F55096EC03F00A4A0B2A0AC0F6FF60
:100690000BC0F7FF0800F5500009D8A4EDD7FFD72D
:1006A000000E046E000E036E0FD0000E066E000EDC
:1006B000056E640E055C000E0658D8B003D0054ADE
:1006C000062AF7D7034A042A0150035C0250045853
:1006D000D8B01200EAD7540EF66E070EF76E000E71
:1006E000F86E00EE08F010EE04F00900F5CFEEFF12
:1006F000E550E150FAE1000EF86E060EF76E0001CB
:100700000FEF03F0E8CF07F0899007C08AFF8982D6
:10071000000E026E0A0E016E50EC03F08992000E7C
:10072000026E0A0E016E50EC03F01200E8CF07F0E3
:10073000898007C08AFF8982000E026E0A0E016E50
:1007400050EC03F08992000E026E0A0E016E50EC1E
:0807500003F0120001060F0680
:020000040020DA
:08000000FFFFFFFFFFFFFFFF00
:020000040030CA
:0E000000FF071F1FFF8385FF0FC00FE00F409B
:00000001FF
