:0400000093EF3FF04B
:107F26000001C2EF3FF0000E046E000E036E02D099
:107F3600034A042A0150035C02500458D8B01200C8
:107F4600F7D7E8CF05F005C083FF84908492848438
:107F5600000E026E320E016E96EC3FF08494120013
:107F6600E8CF05F005C083FF848084928484000EE8
:107F7600026E320E016E96EC3FF084941200000EF3
:107F8600956E0F0EC16E000E966E000E026E320ECC
:107F9600016E96EC3FF0380EA4EC3FF0000E026E38
:107FA600320E016E96EC3FF0010EA4EC3FF0000E8F
:107FB600026E320E016E96EC3FF0060EA4EC3FF018
:107FC600000E026E320E016E96EC3FF0800EA4ECAF
:107FD6003FF0000E026E320E016E96EC3FF0480E38
:107FE600B3EC3FF0000E026E0A0E016E96EC3FF007
:0A7FF600490EB3EC3FF000EF00F07D
:020000040020DA
:08000000FFFFFFFFFFFFFFFF00
:020000040030CA
:0E00000000051F1EFF8381FF0FC00FE00F40A1
:00000001FF
